{
  "_format": "hh-sol-artifact-1",
  "contractName": "FileLog",
  "sourceName": "contracts/FileLog.sol",
  "abi": [
    {
      "anonymous": false,
      "inputs": [
        {
          "indexed": true,
          "internalType": "string",
          "name": "fileHash",
          "type": "string"
        },
        {
          "indexed": false,
          "internalType": "string",
          "name": "action",
          "type": "string"
        },
        {
          "indexed": true,
          "internalType": "string",
          "name": "userId",
          "type": "string"
        },
        {
          "indexed": false,
          "internalType": "uint256",
          "name": "timestamp",
          "type": "uint256"
        },
        {
          "indexed": false,
          "internalType": "string",
          "name": "metadata",
          "type": "string"
        }
      ],
      "name": "FileAction",
      "type": "event"
    },
    {
      "inputs": [
        {
          "internalType": "string",
          "name": "_fileHash",
          "type": "string"
        },
        {
          "internalType": "string",
          "name": "_action",
          "type": "string"
        },
        {
          "internalType": "string",
          "name": "_userId",
          "type": "string"
        },
        {
          "internalType": "string",
          "name": "_metadata",
          "type": "string"
        }
      ],
      "name": "addLog",
      "outputs": [],
      "stateMutability": "nonpayable",
      "type": "function"
    },
    {
      "inputs": [],
      "name": "getAllLogs",
      "outputs": [
        {
          "components": [
            {
              "internalType": "string",
              "name": "fileHash",
              "type": "string"
            },
            {
              "internalType": "string",
              "name": "action",
              "type": "string"
            },
            {
              "internalType": "string",
              "name": "userId",
              "type": "string"
            },
            {
              "internalType": "uint256",
              "name": "timestamp",
              "type": "uint256"
            },
            {
              "internalType": "string",
              "name": "metadata",
              "type": "string"
            }
          ],
          "internalType": "struct FileLog.Log[]",
          "name": "",
          "type": "tuple[]"
        }
      ],
      "stateMutability": "view",
      "type": "function"
    },
    {
      "inputs": [
        {
          "internalType": "uint256",
          "name": "_index",
          "type": "uint256"
        }
      ],
      "name": "getLog",
      "outputs": [
        {
          "components": [
            {
              "internalType": "string",
              "name": "fileHash",
              "type": "string"
            },
            {
              "internalType": "string",
              "name": "action",
              "type": "string"
            },
            {
              "internalType": "string",
              "name": "userId",
              "type": "string"
            },
            {
              "internalType": "uint256",
              "name": "timestamp",
              "type": "uint256"
            },
            {
              "internalType": "string",
              "name": "metadata",
              "type": "string"
            }
          ],
          "internalType": "struct FileLog.Log",
          "name": "",
          "type": "tuple"
        }
      ],
      "stateMutability": "view",
      "type": "function"
    },
    {
      "inputs": [],
      "name": "getLogsCount",
      "outputs": [
        {
          "internalType": "uint256",
          "name": "",
          "type": "uint256"
        }
      ],
      "stateMutability": "view",
      "type": "function"
    },
    {
      "inputs": [
        {
          "internalType": "uint256",
          "name": "",
          "type": "uint256"
        }
      ],
      "name": "logs",
      "outputs": [
        {
          "internalType": "string",
          "name": "fileHash",
          "type": "string"
        },
        {
          "internalType": "string",
          "name": "action",
          "type": "string"
        },
        {
          "internalType": "string",
          "name": "userId",
          "type": "string"
        },
        {
          "internalType": "uint256",
          "name": "timestamp",
          "type": "uint256"
        },
        {
          "internalType": "string",
          "name": "metadata",
          "type": "string"
        }
      ],
      "stateMutability": "view",
      "type": "function"
    }
  ],
  "bytecode": "0x608060405234801561001057600080fd5b506114d0806100206000396000f3fe608060405234801561001057600080fd5b50600436106100575760003560e01c80633206b2c61461005c5780638af391a31461008c578063cc9e300f146100a8578063e581329b146100c6578063e79899bd146100e4575b600080fd5b61007660048036038101906100719190610ab2565b610118565b6040516100839190610c09565b60405180910390f35b6100a660048036038101906100a19190610d60565b6103ed565b005b6100b0610516565b6040516100bd9190610e46565b60405180910390f35b6100ce610522565b6040516100db9190610fae565b60405180910390f35b6100fe60048036038101906100f99190610ab2565b6107d3565b60405161010f95949392919061101a565b60405180910390f35b610120610a39565b6000805490508210610167576040517f08c379a000000000000000000000000000000000000000000000000000000000815260040161015e906110d5565b60405180910390fd5b6000828154811061017b5761017a6110f5565b5b90600052602060002090600502016040518060a00160405290816000820180546101a490611153565b80601f01602080910402602001604051908101604052809291908181526020018280546101d090611153565b801561021d5780601f106101f25761010080835404028352916020019161021d565b820191906000526020600020905b81548152906001019060200180831161020057829003601f168201915b5050505050815260200160018201805461023690611153565b80601f016020809104026020016040519081016040528092919081815260200182805461026290611153565b80156102af5780601f10610284576101008083540402835291602001916102af565b820191906000526020600020905b81548152906001019060200180831161029257829003601f168201915b505050505081526020016002820180546102c890611153565b80601f01602080910402602001604051908101604052809291908181526020018280546102f490611153565b80156103415780601f1061031657610100808354040283529160200191610341565b820191906000526020600020905b81548152906001019060200180831161032457829003601f168201915b505050505081526020016003820154815260200160048201805461036490611153565b80601f016020809104026020016040519081016040528092919081815260200182805461039090611153565b80156103dd5780601f106103b2576101008083540402835291602001916103dd565b820191906000526020600020905b8154815290600101906020018083116103c057829003601f168201915b5050505050815250509050919050565b60006040518060a00160405280868152602001858152602001848152602001428152602001838152509050600081908060018154018082558091505060019003906000526020600020906005020160009091909190915060008201518160000190816104599190611330565b50602082015181600101908161046f9190611330565b5060408201518160020190816104859190611330565b506060820151816003015560808201518160040190816104a59190611330565b505050826040516104b6919061143e565b6040518091039020856040516104cc919061143e565b60405180910390207fa99ffcc52b9cd9840b97f339257d2a35d465d3c01c4554027e8f19e61712525a86428660405161050793929190611455565b60405180910390a35050505050565b60008080549050905090565b60606000805480602002602001604051908101604052809291908181526020016000905b828210156107ca57838290600052602060002090600502016040518060a001604052908160008201805461057990611153565b80601f01602080910402602001604051908101604052809291908181526020018280546105a590611153565b80156105f25780601f106105c7576101008083540402835291602001916105f2565b820191906000526020600020905b8154815290600101906020018083116105d557829003601f168201915b5050505050815260200160018201805461060b90611153565b80601f016020809104026020016040519081016040528092919081815260200182805461063790611153565b80156106845780601f1061065957610100808354040283529160200191610684565b820191906000526020600020905b81548152906001019060200180831161066757829003601f168201915b5050505050815260200160028201805461069d90611153565b80601f01602080910402602001604051908101604052809291908181526020018280546106c990611153565b80156107165780601f106106eb57610100808354040283529160200191610716565b820191906000526020600020905b8154815290600101906020018083116106f957829003601f168201915b505050505081526020016003820154815260200160048201805461073990611153565b80601f016020809104026020016040519081016040528092919081815260200182805461076590611153565b80156107b25780601f10610787576101008083540402835291602001916107b2565b820191906000526020600020905b81548152906001019060200180831161079557829003601f168201915b50505050508152505081526020019060010190610546565b50505050905090565b600081815481106107e357600080fd5b906000526020600020906005020160009150905080600001805461080690611153565b80601f016020809104026020016040519081016040528092919081815260200182805461083290611153565b801561087f5780601f106108545761010080835404028352916020019161087f565b820191906000526020600020905b81548152906001019060200180831161086257829003601f168201915b50505050509080600101805461089490611153565b80601f01602080910402602001604051908101604052809291908181526020018280546108c090611153565b801561090d5780601f106108e25761010080835404028352916020019161090d565b820191906000526020600020905b8154815290600101906020018083116108f057829003601f168201915b50505050509080600201805461092290611153565b80601f016020809104026020016040519081016040528092919081815260200182805461094e90611153565b801561099b5780601f106109705761010080835404028352916020019161099b565b820191906000526020600020905b81548152906001019060200180831161097e57829003601f168201915b5050505050908060030154908060040180546109b690611153565b80601f01602080910402602001604051908101604052809291908181526020018280546109e290611153565b8015610a2f5780601f10610a0457610100808354040283529160200191610a2f565b820191906000526020600020905b815481529060010190602001808311610a1257829003601f168201915b5050505050905085565b6040518060a0016040528060608152602001606081526020016060815260200160008152602001606081525090565b6000604051905090565b600080fd5b600080fd5b6000819050919050565b610a8f81610a7c565b8114610a9a57600080fd5b50565b600081359050610aac81610a86565b92915050565b600060208284031215610ac857610ac7610a72565b5b6000610ad684828501610a9d565b91505092915050565b600081519050919050565b600082825260208201905092915050565b60005b83811015610b19578082015181840152602081019050610afe565b60008484015250505050565b6000601f19601f8301169050919050565b6000610b4182610adf565b610b4b8185610aea565b9350610b5b818560208601610afb565b610b6481610b25565b840191505092915050565b610b7881610a7c565b82525050565b600060a0830160008301518482036000860152610b9b8282610b36565b91505060208301518482036020860152610bb58282610b36565b91505060408301518482036040860152610bcf8282610b36565b9150506060830151610be46060860182610b6f565b5060808301518482036080860152610bfc8282610b36565b9150508091505092915050565b60006020820190508181036000830152610c238184610b7e565b905092915050565b600080fd5b600080fd5b7f4e487b7100000000000000000000000000000000000000000000000000000000600052604160045260246000fd5b610c6d82610b25565b810181811067ffffffffffffffff82111715610c8c57610c8b610c35565b5b80604052505050565b6000610c9f610a68565b9050610cab8282610c64565b919050565b600067ffffffffffffffff821115610ccb57610cca610c35565b5b610cd482610b25565b9050602081019050919050565b82818337600083830152505050565b6000610d03610cfe84610cb0565b610c95565b905082815260208101848484011115610d1f57610d1e610c30565b5b610d2a848285610ce1565b509392505050565b600082601f830112610d4757610d46610c2b565b5b8135610d57848260208601610cf0565b91505092915050565b60008060008060808587031215610d7a57610d79610a72565b5b600085013567ffffffffffffffff811115610d9857610d97610a77565b5b610da487828801610d32565b945050602085013567ffffffffffffffff811115610dc557610dc4610a77565b5b610dd187828801610d32565b935050604085013567ffffffffffffffff811115610df257610df1610a77565b5b610dfe87828801610d32565b925050606085013567ffffffffffffffff811115610e1f57610e1e610a77565b5b610e2b87828801610d32565b91505092959194509250565b610e4081610a7c565b82525050565b6000602082019050610e5b6000830184610e37565b92915050565b600081519050919050565b600082825260208201905092915050565b6000819050602082019050919050565b600060a0830160008301518482036000860152610eaa8282610b36565b91505060208301518482036020860152610ec48282610b36565b91505060408301518482036040860152610ede8282610b36565b9150506060830151610ef36060860182610b6f565b5060808301518482036080860152610f0b8282610b36565b9150508091505092915050565b6000610f248383610e8d565b905092915050565b6000602082019050919050565b6000610f4482610e61565b610f4e8185610e6c565b935083602082028501610f6085610e7d565b8060005b85811015610f9c5784840389528151610f7d8582610f18565b9450610f8883610f2c565b925060208a01995050600181019050610f64565b50829750879550505050505092915050565b60006020820190508181036000830152610fc88184610f39565b905092915050565b600082825260208201905092915050565b6000610fec82610adf565b610ff68185610fd0565b9350611006818560208601610afb565b61100f81610b25565b840191505092915050565b600060a08201905081810360008301526110348188610fe1565b905081810360208301526110488187610fe1565b9050818103604083015261105c8186610fe1565b905061106b6060830185610e37565b818103608083015261107d8184610fe1565b90509695505050505050565b7f496e646578206f7574206f6620626f756e647300000000000000000000000000600082015250565b60006110bf601383610fd0565b91506110ca82611089565b602082019050919050565b600060208201905081810360008301526110ee816110b2565b9050919050565b7f4e487b7100000000000000000000000000000000000000000000000000000000600052603260045260246000fd5b7f4e487b7100000000000000000000000000000000000000000000000000000000600052602260045260246000fd5b6000600282049050600182168061116b57607f821691505b60208210810361117e5761117d611124565b5b50919050565b60008190508160005260206000209050919050565b60006020601f8301049050919050565b600082821b905092915050565b6000600883026111e67fffffffffffffffffffffffffffffffffffffffffffffffffffffffffffffffff826111a9565b6111f086836111a9565b95508019841693508086168417925050509392505050565b6000819050919050565b600061122d61122861122384610a7c565b611208565b610a7c565b9050919050565b6000819050919050565b61124783611212565b61125b61125382611234565b8484546111b6565b825550505050565b600090565b611270611263565b61127b81848461123e565b505050565b5b8181101561129f57611294600082611268565b600181019050611281565b5050565b601f8211156112e4576112b581611184565b6112be84611199565b810160208510156112cd578190505b6112e16112d985611199565b830182611280565b50505b505050565b600082821c905092915050565b6000611307600019846008026112e9565b1980831691505092915050565b600061132083836112f6565b9150826002028217905092915050565b61133982610adf565b67ffffffffffffffff81111561135257611351610c35565b5b61135c8254611153565b6113678282856112a3565b600060209050601f83116001811461139a5760008415611388578287015190505b6113928582611314565b8655506113fa565b601f1984166113a886611184565b60005b828110156113d0578489015182556001820191506020850194506020810190506113ab565b868310156113ed57848901516113e9601f8916826112f6565b8355505b6001600288020188555050505b505050505050565b600081905092915050565b600061141882610adf565b6114228185611402565b9350611432818560208601610afb565b80840191505092915050565b600061144a828461140d565b915081905092915050565b6000606082019050818103600083015261146f8186610fe1565b905061147e6020830185610e37565b81810360408301526114908184610fe1565b905094935050505056fea26469706673582212209e0b9d8869940f3aaea8643d2a9ef2a2cdcc40da98b8b79f2747d7e19dd6409264736f6c63430008130033",
  "linkReferences": {},
  "deployedLinkReferences": {}
}